{
  "address": "0x0e272D737D9cfcb01c7810126920c9665E4902A2",
  "abi": [
    {
      "inputs": [
        {
          "internalType": "bytes",
          "name": "",
          "type": "bytes"
        },
        {
          "internalType": "bytes",
          "name": "",
          "type": "bytes"
        }
      ],
      "name": "verify",
      "outputs": [
        {
          "internalType": "bool",
          "name": "",
          "type": "bool"
        }
      ],
      "stateMutability": "pure",
      "type": "function"
    }
  ],
  "transactionHash": "0xde6e26e76d74636b4e0bb2f3aaff3794145e18068ae74a30654539f38e294d5e",
  "args": [],
  "solcInputHash": "8c9ff72ace072fadb0f3f5595dcd3d0b",
  "bytecode": "0x608060405234801561001057600080fd5b50610199806100206000396000f3fe608060405234801561001057600080fd5b506004361061002b5760003560e01c8063f7e83aee14610030575b600080fd5b61004a600480360381019061004591906100b8565b610060565b604051610057919061013c565b60405180910390f35b600060019050949350505050565b60008083601f84011261008057600080fd5b8235905067ffffffffffffffff81111561009957600080fd5b6020830191508360018202830111156100b157600080fd5b9250929050565b600080600080604085870312156100ce57600080fd5b600085013567ffffffffffffffff8111156100e857600080fd5b6100f48782880161006e565b9450945050602085013567ffffffffffffffff81111561011357600080fd5b61011f8782880161006e565b925092505092959194509250565b61013681610157565b82525050565b6000602082019050610151600083018461012d565b92915050565b6000811515905091905056fea264697066735822122043bde4b4acc44aa2afbe0d57e0bd3e17827b3bef8343f64b9a5a66a65049467064736f6c63430008040033",
  "devdoc": {
    "details": "Implements a dummy DNSSEC digest that approves all hashes, for testing.",
    "kind": "dev",
    "methods": {},
    "version": 1
  },
  "userdoc": {
    "kind": "user",
    "methods": {},
    "version": 1
  },
  "storageLayout": {
    "storage": [],
    "types": null
  }
}