{
  "address": "0x65597a288B9970BE51889579eEEf77088A8b20aF",
  "abi": [
    {
      "inputs": [
        {
          "internalType": "contract ENS",
          "name": "_old",
          "type": "address"
        }
      ],
      "stateMutability": "nonpayable",
      "type": "constructor"
    },
    {
      "anonymous": false,
      "inputs": [
        {
          "indexed": true,
          "internalType": "address",
          "name": "owner",
          "type": "address"
        },
        {
          "indexed": true,
          "internalType": "address",
          "name": "operator",
          "type": "address"
        },
        {
          "indexed": false,
          "internalType": "bool",
          "name": "approved",
          "type": "bool"
        }
      ],
      "name": "ApprovalForAll",
      "type": "event"
    },
    {
      "anonymous": false,
      "inputs": [
        {
          "indexed": true,
          "internalType": "bytes32",
          "name": "node",
          "type": "bytes32"
        },
        {
          "indexed": true,
          "internalType": "bytes32",
          "name": "label",
          "type": "bytes32"
        },
        {
          "indexed": false,
          "internalType": "address",
          "name": "owner",
          "type": "address"
        }
      ],
      "name": "NewOwner",
      "type": "event"
    },
    {
      "anonymous": false,
      "inputs": [
        {
          "indexed": true,
          "internalType": "bytes32",
          "name": "node",
          "type": "bytes32"
        },
        {
          "indexed": false,
          "internalType": "address",
          "name": "resolver",
          "type": "address"
        }
      ],
      "name": "NewResolver",
      "type": "event"
    },
    {
      "anonymous": false,
      "inputs": [
        {
          "indexed": true,
          "internalType": "bytes32",
          "name": "node",
          "type": "bytes32"
        },
        {
          "indexed": false,
          "internalType": "uint64",
          "name": "ttl",
          "type": "uint64"
        }
      ],
      "name": "NewTTL",
      "type": "event"
    },
    {
      "anonymous": false,
      "inputs": [
        {
          "indexed": true,
          "internalType": "bytes32",
          "name": "node",
          "type": "bytes32"
        },
        {
          "indexed": false,
          "internalType": "address",
          "name": "owner",
          "type": "address"
        }
      ],
      "name": "Transfer",
      "type": "event"
    },
    {
      "inputs": [
        {
          "internalType": "address",
          "name": "owner",
          "type": "address"
        },
        {
          "internalType": "address",
          "name": "operator",
          "type": "address"
        }
      ],
      "name": "isApprovedForAll",
      "outputs": [
        {
          "internalType": "bool",
          "name": "",
          "type": "bool"
        }
      ],
      "stateMutability": "view",
      "type": "function"
    },
    {
      "inputs": [],
      "name": "old",
      "outputs": [
        {
          "internalType": "contract ENS",
          "name": "",
          "type": "address"
        }
      ],
      "stateMutability": "view",
      "type": "function"
    },
    {
      "inputs": [
        {
          "internalType": "bytes32",
          "name": "node",
          "type": "bytes32"
        }
      ],
      "name": "owner",
      "outputs": [
        {
          "internalType": "address",
          "name": "",
          "type": "address"
        }
      ],
      "stateMutability": "view",
      "type": "function"
    },
    {
      "inputs": [
        {
          "internalType": "bytes32",
          "name": "node",
          "type": "bytes32"
        }
      ],
      "name": "recordExists",
      "outputs": [
        {
          "internalType": "bool",
          "name": "",
          "type": "bool"
        }
      ],
      "stateMutability": "view",
      "type": "function"
    },
    {
      "inputs": [
        {
          "internalType": "bytes32",
          "name": "node",
          "type": "bytes32"
        }
      ],
      "name": "resolver",
      "outputs": [
        {
          "internalType": "address",
          "name": "",
          "type": "address"
        }
      ],
      "stateMutability": "view",
      "type": "function"
    },
    {
      "inputs": [
        {
          "internalType": "address",
          "name": "operator",
          "type": "address"
        },
        {
          "internalType": "bool",
          "name": "approved",
          "type": "bool"
        }
      ],
      "name": "setApprovalForAll",
      "outputs": [],
      "stateMutability": "nonpayable",
      "type": "function"
    },
    {
      "inputs": [
        {
          "internalType": "bytes32",
          "name": "node",
          "type": "bytes32"
        },
        {
          "internalType": "address",
          "name": "owner",
          "type": "address"
        }
      ],
      "name": "setOwner",
      "outputs": [],
      "stateMutability": "nonpayable",
      "type": "function"
    },
    {
      "inputs": [
        {
          "internalType": "bytes32",
          "name": "node",
          "type": "bytes32"
        },
        {
          "internalType": "address",
          "name": "owner",
          "type": "address"
        },
        {
          "internalType": "address",
          "name": "resolver",
          "type": "address"
        },
        {
          "internalType": "uint64",
          "name": "ttl",
          "type": "uint64"
        }
      ],
      "name": "setRecord",
      "outputs": [],
      "stateMutability": "nonpayable",
      "type": "function"
    },
    {
      "inputs": [
        {
          "internalType": "bytes32",
          "name": "node",
          "type": "bytes32"
        },
        {
          "internalType": "address",
          "name": "resolver",
          "type": "address"
        }
      ],
      "name": "setResolver",
      "outputs": [],
      "stateMutability": "nonpayable",
      "type": "function"
    },
    {
      "inputs": [
        {
          "internalType": "bytes32",
          "name": "node",
          "type": "bytes32"
        },
        {
          "internalType": "bytes32",
          "name": "label",
          "type": "bytes32"
        },
        {
          "internalType": "address",
          "name": "owner",
          "type": "address"
        }
      ],
      "name": "setSubnodeOwner",
      "outputs": [
        {
          "internalType": "bytes32",
          "name": "",
          "type": "bytes32"
        }
      ],
      "stateMutability": "nonpayable",
      "type": "function"
    },
    {
      "inputs": [
        {
          "internalType": "bytes32",
          "name": "node",
          "type": "bytes32"
        },
        {
          "internalType": "bytes32",
          "name": "label",
          "type": "bytes32"
        },
        {
          "internalType": "address",
          "name": "owner",
          "type": "address"
        },
        {
          "internalType": "address",
          "name": "resolver",
          "type": "address"
        },
        {
          "internalType": "uint64",
          "name": "ttl",
          "type": "uint64"
        }
      ],
      "name": "setSubnodeRecord",
      "outputs": [],
      "stateMutability": "nonpayable",
      "type": "function"
    },
    {
      "inputs": [
        {
          "internalType": "bytes32",
          "name": "node",
          "type": "bytes32"
        },
        {
          "internalType": "uint64",
          "name": "ttl",
          "type": "uint64"
        }
      ],
      "name": "setTTL",
      "outputs": [],
      "stateMutability": "nonpayable",
      "type": "function"
    },
    {
      "inputs": [
        {
          "internalType": "bytes32",
          "name": "node",
          "type": "bytes32"
        }
      ],
      "name": "ttl",
      "outputs": [
        {
          "internalType": "uint64",
          "name": "",
          "type": "uint64"
        }
      ],
      "stateMutability": "view",
      "type": "function"
    }
  ],
  "transactionHash": "0x14e3c3356d2633f7fecbd78a56dca109395aedf3836e395be7b21bd2d3102a42",
  "args": [
    "0x7c93F23be36979c0c3FaCFD6694015f9142c9dd2"
  ],
  "bytecode": "0x60806040523480156200001157600080fd5b5060405162001a5638038062001a568339818101604052810190620000379190620000ed565b336000808060001b815260200190815260200160002060000160006101000a81548173ffffffffffffffffffffffffffffffffffffffff021916908373ffffffffffffffffffffffffffffffffffffffff16021790555080600260006101000a81548173ffffffffffffffffffffffffffffffffffffffff021916908373ffffffffffffffffffffffffffffffffffffffff160217905550506200017b565b600081519050620000e78162000161565b92915050565b6000602082840312156200010057600080fd5b60006200011084828501620000d6565b91505092915050565b6000620001268262000141565b9050919050565b60006200013a8262000119565b9050919050565b600073ffffffffffffffffffffffffffffffffffffffff82169050919050565b6200016c816200012d565b81146200017857600080fd5b50565b6118cb806200018b6000396000f3fe608060405234801561001057600080fd5b50600436106100cf5760003560e01c80635b0fc9c31161008c578063b83f866311610066578063b83f866314610220578063cf4088231461023e578063e985e9c51461025a578063f79fe5381461028a576100cf565b80635b0fc9c3146101cc5780635ef2c7f0146101e8578063a22cb46514610204576100cf565b80630178b8bf146100d457806302571be31461010457806306ab59231461013457806314ab90381461016457806316a25cbd146101805780631896f70a146101b0575b600080fd5b6100ee60048036038101906100e991906113bc565b6102ba565b6040516100fb9190611676565b60405180910390f35b61011e600480360381019061011991906113bc565b61038c565b60405161012b9190611676565b60405180910390f35b61014e60048036038101906101499190611484565b61045e565b60405161015b91906116ac565b60405180910390f35b61017e6004803603810190610179919061154a565b6105e1565b005b61019a600480360381019061019591906113bc565b61075f565b6040516101a79190611734565b60405180910390f35b6101ca60048036038101906101c591906113e5565b61086f565b005b6101e660048036038101906101e191906113e5565b610a05565b005b61020260048036038101906101fd91906114d3565b610b51565b005b61021e60048036038101906102199190611380565b610b73565b005b610228610c70565b60405161023591906116c7565b60405180910390f35b61025860048036038101906102539190611421565b610c96565b005b610274600480360381019061026f9190611344565b610cb1565b6040516102819190611691565b60405180910390f35b6102a4600480360381019061029f91906113bc565b610d45565b6040516102b19190611691565b60405180910390f35b60006102c582610d45565b61037b57600260009054906101000a900473ffffffffffffffffffffffffffffffffffffffff1673ffffffffffffffffffffffffffffffffffffffff16630178b8bf836040518263ffffffff1660e01b815260040161032491906116ac565b60206040518083038186803b15801561033c57600080fd5b505afa158015610350573d6000803e3d6000fd5b505050506040513d601f19601f82011682018060405250810190610374919061131b565b9050610387565b61038482610db3565b90505b919050565b600061039782610d45565b61044d57600260009054906101000a900473ffffffffffffffffffffffffffffffffffffffff1673ffffffffffffffffffffffffffffffffffffffff166302571be3836040518263ffffffff1660e01b81526004016103f691906116ac565b60206040518083038186803b15801561040e57600080fd5b505afa158015610422573d6000803e3d6000fd5b505050506040513d601f19601f82011682018060405250810190610446919061131b565b9050610459565b61045682610df2565b90505b919050565b600083600080600083815260200190815260200160002060000160009054906101000a900473ffffffffffffffffffffffffffffffffffffffff1690503373ffffffffffffffffffffffffffffffffffffffff168173ffffffffffffffffffffffffffffffffffffffff16148061055b5750600160008273ffffffffffffffffffffffffffffffffffffffff1673ffffffffffffffffffffffffffffffffffffffff16815260200190815260200160002060003373ffffffffffffffffffffffffffffffffffffffff1673ffffffffffffffffffffffffffffffffffffffff16815260200190815260200160002060009054906101000a900460ff165b61056457600080fd5b6000868660405160200161057992919061164a565b60405160208183030381529060405280519060200120905061059b8186610eb4565b85877fce0457fe73731f824cc272376169235128c118b49d344817417c6d108d155e82876040516105cc9190611676565b60405180910390a38093505050509392505050565b81600080600083815260200190815260200160002060000160009054906101000a900473ffffffffffffffffffffffffffffffffffffffff1690503373ffffffffffffffffffffffffffffffffffffffff168173ffffffffffffffffffffffffffffffffffffffff1614806106dc5750600160008273ffffffffffffffffffffffffffffffffffffffff1673ffffffffffffffffffffffffffffffffffffffff16815260200190815260200160002060003373ffffffffffffffffffffffffffffffffffffffff1673ffffffffffffffffffffffffffffffffffffffff16815260200190815260200160002060009054906101000a900460ff165b6106e557600080fd5b837f1d4f9bbfc9cab89d66e1a1562f2233ccbf1308cb4f63de2ead5787adddb8fa68846040516107159190611734565b60405180910390a28260008086815260200190815260200160002060010160146101000a81548167ffffffffffffffff021916908367ffffffffffffffff16021790555050505050565b600061076a82610d45565b61085e576107ac6040518060400160405280601481526020017f4f6c64207265636f7264206e6f7420666f756e64000000000000000000000000815250610f01565b600260009054906101000a900473ffffffffffffffffffffffffffffffffffffffff1673ffffffffffffffffffffffffffffffffffffffff166316a25cbd836040518263ffffffff1660e01b815260040161080791906116ac565b60206040518083038186803b15801561081f57600080fd5b505afa158015610833573d6000803e3d6000fd5b505050506040513d601f19601f820116820180604052508101906108579190611586565b905061086a565b61086782610f9a565b90505b919050565b81600080600083815260200190815260200160002060000160009054906101000a900473ffffffffffffffffffffffffffffffffffffffff1690503373ffffffffffffffffffffffffffffffffffffffff168173ffffffffffffffffffffffffffffffffffffffff16148061096a5750600160008273ffffffffffffffffffffffffffffffffffffffff1673ffffffffffffffffffffffffffffffffffffffff16815260200190815260200160002060003373ffffffffffffffffffffffffffffffffffffffff1673ffffffffffffffffffffffffffffffffffffffff16815260200190815260200160002060009054906101000a900460ff165b61097357600080fd5b837f335721b01866dc23fbee8b6b2c7b1e14d6f05c28cd35a2c934239f94095602a0846040516109a39190611676565b60405180910390a28260008086815260200190815260200160002060010160006101000a81548173ffffffffffffffffffffffffffffffffffffffff021916908373ffffffffffffffffffffffffffffffffffffffff16021790555050505050565b81600080600083815260200190815260200160002060000160009054906101000a900473ffffffffffffffffffffffffffffffffffffffff1690503373ffffffffffffffffffffffffffffffffffffffff168173ffffffffffffffffffffffffffffffffffffffff161480610b005750600160008273ffffffffffffffffffffffffffffffffffffffff1673ffffffffffffffffffffffffffffffffffffffff16815260200190815260200160002060003373ffffffffffffffffffffffffffffffffffffffff1673ffffffffffffffffffffffffffffffffffffffff16815260200190815260200160002060009054906101000a900460ff165b610b0957600080fd5b610b138484610eb4565b837fd4735d920b0f87494915f556dd9b54c8f309026070caea5c737245152564d26684604051610b439190611676565b60405180910390a250505050565b6000610b5e86868661045e565b9050610b6b818484610fcd565b505050505050565b80600160003373ffffffffffffffffffffffffffffffffffffffff1673ffffffffffffffffffffffffffffffffffffffff16815260200190815260200160002060008473ffffffffffffffffffffffffffffffffffffffff1673ffffffffffffffffffffffffffffffffffffffff16815260200190815260200160002060006101000a81548160ff0219169083151502179055508173ffffffffffffffffffffffffffffffffffffffff163373ffffffffffffffffffffffffffffffffffffffff167f17307eab39ab6107e8899845ad3d59bd9653f200f220920489ca2b5937696c3183604051610c649190611691565b60405180910390a35050565b600260009054906101000a900473ffffffffffffffffffffffffffffffffffffffff1681565b610ca08484610a05565b610cab848383610fcd565b50505050565b6000600160008473ffffffffffffffffffffffffffffffffffffffff1673ffffffffffffffffffffffffffffffffffffffff16815260200190815260200160002060008373ffffffffffffffffffffffffffffffffffffffff1673ffffffffffffffffffffffffffffffffffffffff16815260200190815260200160002060009054906101000a900460ff16905092915050565b60008073ffffffffffffffffffffffffffffffffffffffff1660008084815260200190815260200160002060000160009054906101000a900473ffffffffffffffffffffffffffffffffffffffff1673ffffffffffffffffffffffffffffffffffffffff1614159050919050565b600080600083815260200190815260200160002060010160009054906101000a900473ffffffffffffffffffffffffffffffffffffffff169050919050565b60008060008084815260200190815260200160002060000160009054906101000a900473ffffffffffffffffffffffffffffffffffffffff1690503073ffffffffffffffffffffffffffffffffffffffff168173ffffffffffffffffffffffffffffffffffffffff161415610e6b576000915050610eaf565b610eaa6040518060400160405280600781526020017f4f776e65723a200000000000000000000000000000000000000000000000000081525082611180565b809150505b919050565b6000819050600073ffffffffffffffffffffffffffffffffffffffff168173ffffffffffffffffffffffffffffffffffffffff161415610ef2573090505b610efc838261121c565b505050565b610f9781604051602401610f1591906116e2565b6040516020818303038152906040527f41304fac000000000000000000000000000000000000000000000000000000007bffffffffffffffffffffffffffffffffffffffffffffffffffffffff19166020820180517bffffffffffffffffffffffffffffffffffffffffffffffffffffffff8381831617835250505050611274565b50565b600080600083815260200190815260200160002060010160149054906101000a900467ffffffffffffffff169050919050565b60008084815260200190815260200160002060010160009054906101000a900473ffffffffffffffffffffffffffffffffffffffff1673ffffffffffffffffffffffffffffffffffffffff168273ffffffffffffffffffffffffffffffffffffffff16146110c2578160008085815260200190815260200160002060010160006101000a81548173ffffffffffffffffffffffffffffffffffffffff021916908373ffffffffffffffffffffffffffffffffffffffff160217905550827f335721b01866dc23fbee8b6b2c7b1e14d6f05c28cd35a2c934239f94095602a0836040516110b99190611676565b60405180910390a25b60008084815260200190815260200160002060010160149054906101000a900467ffffffffffffffff1667ffffffffffffffff168167ffffffffffffffff161461117b578060008085815260200190815260200160002060010160146101000a81548167ffffffffffffffff021916908367ffffffffffffffff160217905550827f1d4f9bbfc9cab89d66e1a1562f2233ccbf1308cb4f63de2ead5787adddb8fa68826040516111729190611734565b60405180910390a25b505050565b6112188282604051602401611196929190611704565b6040516020818303038152906040527f319af333000000000000000000000000000000000000000000000000000000007bffffffffffffffffffffffffffffffffffffffffffffffffffffffff19166020820180517bffffffffffffffffffffffffffffffffffffffffffffffffffffffff8381831617835250505050611274565b5050565b8060008084815260200190815260200160002060000160006101000a81548173ffffffffffffffffffffffffffffffffffffffff021916908373ffffffffffffffffffffffffffffffffffffffff1602179055505050565b60008151905060006a636f6e736f6c652e6c6f679050602083016000808483855afa5050505050565b6000813590506112ac81611839565b92915050565b6000815190506112c181611839565b92915050565b6000813590506112d681611850565b92915050565b6000813590506112eb81611867565b92915050565b6000813590506113008161187e565b92915050565b6000815190506113158161187e565b92915050565b60006020828403121561132d57600080fd5b600061133b848285016112b2565b91505092915050565b6000806040838503121561135757600080fd5b60006113658582860161129d565b92505060206113768582860161129d565b9150509250929050565b6000806040838503121561139357600080fd5b60006113a18582860161129d565b92505060206113b2858286016112c7565b9150509250929050565b6000602082840312156113ce57600080fd5b60006113dc848285016112dc565b91505092915050565b600080604083850312156113f857600080fd5b6000611406858286016112dc565b92505060206114178582860161129d565b9150509250929050565b6000806000806080858703121561143757600080fd5b6000611445878288016112dc565b94505060206114568782880161129d565b93505060406114678782880161129d565b9250506060611478878288016112f1565b91505092959194509250565b60008060006060848603121561149957600080fd5b60006114a7868287016112dc565b93505060206114b8868287016112dc565b92505060406114c98682870161129d565b9150509250925092565b600080600080600060a086880312156114eb57600080fd5b60006114f9888289016112dc565b955050602061150a888289016112dc565b945050604061151b8882890161129d565b935050606061152c8882890161129d565b925050608061153d888289016112f1565b9150509295509295909350565b6000806040838503121561155d57600080fd5b600061156b858286016112dc565b925050602061157c858286016112f1565b9150509250929050565b60006020828403121561159857600080fd5b60006115a684828501611306565b91505092915050565b6115b88161176b565b82525050565b6115c78161177d565b82525050565b6115d681611789565b82525050565b6115ed6115e882611789565b61181e565b82525050565b6115fc816117c7565b82525050565b600061160d8261174f565b611617818561175a565b93506116278185602086016117eb565b61163081611828565b840191505092915050565b611644816117b3565b82525050565b600061165682856115dc565b60208201915061166682846115dc565b6020820191508190509392505050565b600060208201905061168b60008301846115af565b92915050565b60006020820190506116a660008301846115be565b92915050565b60006020820190506116c160008301846115cd565b92915050565b60006020820190506116dc60008301846115f3565b92915050565b600060208201905081810360008301526116fc8184611602565b905092915050565b6000604082019050818103600083015261171e8185611602565b905061172d60208301846115af565b9392505050565b6000602082019050611749600083018461163b565b92915050565b600081519050919050565b600082825260208201905092915050565b600061177682611793565b9050919050565b60008115159050919050565b6000819050919050565b600073ffffffffffffffffffffffffffffffffffffffff82169050919050565b600067ffffffffffffffff82169050919050565b60006117d2826117d9565b9050919050565b60006117e482611793565b9050919050565b60005b838110156118095780820151818401526020810190506117ee565b83811115611818576000848401525b50505050565b6000819050919050565b6000601f19601f8301169050919050565b6118428161176b565b811461184d57600080fd5b50565b6118598161177d565b811461186457600080fd5b50565b61187081611789565b811461187b57600080fd5b50565b611887816117b3565b811461189257600080fd5b5056fea26469706673582212208bdda85a1500a0bfd96bd956cbe8ac05b884a598eb2bc7c761fb3e07dca4ed0864736f6c63430008040033"
}